{
  "_format": "hh-sol-artifact-1",
  "contractName": "Catalyst",
  "sourceName": "src/contracts/Catalyst.sol",
  "abi": [
    {
      "inputs": [
        {
          "internalType": "uint256",
          "name": "_projectTax",
          "type": "uint256"
        }
      ],
      "stateMutability": "nonpayable",
      "type": "constructor"
    },
    {
      "anonymous": false,
      "inputs": [
        {
          "indexed": false,
          "internalType": "uint256",
          "name": "id",
          "type": "uint256"
        },
        {
          "indexed": false,
          "internalType": "string",
          "name": "actionType",
          "type": "string"
        },
        {
          "indexed": true,
          "internalType": "address",
          "name": "executor",
          "type": "address"
        },
        {
          "indexed": false,
          "internalType": "uint256",
          "name": "timestamp",
          "type": "uint256"
        }
      ],
      "name": "Action",
      "type": "event"
    },
    {
      "inputs": [
        {
          "internalType": "uint256",
          "name": "id",
          "type": "uint256"
        }
      ],
      "name": "backProject",
      "outputs": [
        {
          "internalType": "bool",
          "name": "",
          "type": "bool"
        }
      ],
      "stateMutability": "payable",
      "type": "function"
    },
    {
      "inputs": [],
      "name": "balance",
      "outputs": [
        {
          "internalType": "uint256",
          "name": "",
          "type": "uint256"
        }
      ],
      "stateMutability": "view",
      "type": "function"
    },
    {
      "inputs": [
        {
          "internalType": "uint256",
          "name": "_taxPct",
          "type": "uint256"
        }
      ],
      "name": "changeTax",
      "outputs": [],
      "stateMutability": "nonpayable",
      "type": "function"
    },
    {
      "inputs": [
        {
          "internalType": "string",
          "name": "title",
          "type": "string"
        },
        {
          "internalType": "string",
          "name": "description",
          "type": "string"
        },
        {
          "internalType": "string",
          "name": "imageURL",
          "type": "string"
        },
        {
          "internalType": "uint256",
          "name": "cost",
          "type": "uint256"
        },
        {
          "internalType": "uint256",
          "name": "expiresAt",
          "type": "uint256"
        }
      ],
      "name": "createProject",
      "outputs": [
        {
          "internalType": "bool",
          "name": "",
          "type": "bool"
        }
      ],
      "stateMutability": "nonpayable",
      "type": "function"
    },
    {
      "inputs": [
        {
          "internalType": "uint256",
          "name": "id",
          "type": "uint256"
        }
      ],
      "name": "deleteProject",
      "outputs": [
        {
          "internalType": "bool",
          "name": "",
          "type": "bool"
        }
      ],
      "stateMutability": "nonpayable",
      "type": "function"
    },
    {
      "inputs": [
        {
          "internalType": "uint256",
          "name": "id",
          "type": "uint256"
        },
        {
          "internalType": "string",
          "name": "title",
          "type": "string"
        },
        {
          "internalType": "string",
          "name": "description",
          "type": "string"
        },
        {
          "internalType": "string",
          "name": "imageURL",
          "type": "string"
        },
        {
          "internalType": "uint256",
          "name": "expiresAt",
          "type": "uint256"
        }
      ],
      "name": "editProject",
      "outputs": [
        {
          "internalType": "bool",
          "name": "",
          "type": "bool"
        }
      ],
      "stateMutability": "nonpayable",
      "type": "function"
    },
    {
      "inputs": [
        {
          "internalType": "uint256",
          "name": "id",
          "type": "uint256"
        }
      ],
      "name": "getBackers",
      "outputs": [
        {
          "components": [
            {
              "internalType": "address",
              "name": "owner",
              "type": "address"
            },
            {
              "internalType": "uint256",
              "name": "contribution",
              "type": "uint256"
            },
            {
              "internalType": "uint256",
              "name": "timestamp",
              "type": "uint256"
            },
            {
              "internalType": "bool",
              "name": "refunded",
              "type": "bool"
            }
          ],
          "internalType": "struct Catalyst.backerStruct[]",
          "name": "",
          "type": "tuple[]"
        }
      ],
      "stateMutability": "view",
      "type": "function"
    },
    {
      "inputs": [
        {
          "internalType": "uint256",
          "name": "id",
          "type": "uint256"
        }
      ],
      "name": "getProject",
      "outputs": [
        {
          "components": [
            {
              "internalType": "uint256",
              "name": "id",
              "type": "uint256"
            },
            {
              "internalType": "address",
              "name": "owner",
              "type": "address"
            },
            {
              "internalType": "string",
              "name": "title",
              "type": "string"
            },
            {
              "internalType": "string",
              "name": "description",
              "type": "string"
            },
            {
              "internalType": "string",
              "name": "imageURL",
              "type": "string"
            },
            {
              "internalType": "uint256",
              "name": "cost",
              "type": "uint256"
            },
            {
              "internalType": "uint256",
              "name": "raised",
              "type": "uint256"
            },
            {
              "internalType": "uint256",
              "name": "timestamp",
              "type": "uint256"
            },
            {
              "internalType": "uint256",
              "name": "expiresAt",
              "type": "uint256"
            },
            {
              "internalType": "uint256",
              "name": "backers",
              "type": "uint256"
            },
            {
              "internalType": "enum Catalyst.statusEnum",
              "name": "status",
              "type": "uint8"
            }
          ],
          "internalType": "struct Catalyst.projectStruct",
          "name": "",
          "type": "tuple"
        }
      ],
      "stateMutability": "view",
      "type": "function"
    },
    {
      "inputs": [],
      "name": "getProjects",
      "outputs": [
        {
          "components": [
            {
              "internalType": "uint256",
              "name": "id",
              "type": "uint256"
            },
            {
              "internalType": "address",
              "name": "owner",
              "type": "address"
            },
            {
              "internalType": "string",
              "name": "title",
              "type": "string"
            },
            {
              "internalType": "string",
              "name": "description",
              "type": "string"
            },
            {
              "internalType": "string",
              "name": "imageURL",
              "type": "string"
            },
            {
              "internalType": "uint256",
              "name": "cost",
              "type": "uint256"
            },
            {
              "internalType": "uint256",
              "name": "raised",
              "type": "uint256"
            },
            {
              "internalType": "uint256",
              "name": "timestamp",
              "type": "uint256"
            },
            {
              "internalType": "uint256",
              "name": "expiresAt",
              "type": "uint256"
            },
            {
              "internalType": "uint256",
              "name": "backers",
              "type": "uint256"
            },
            {
              "internalType": "enum Catalyst.statusEnum",
              "name": "status",
              "type": "uint8"
            }
          ],
          "internalType": "struct Catalyst.projectStruct[]",
          "name": "",
          "type": "tuple[]"
        }
      ],
      "stateMutability": "view",
      "type": "function"
    },
    {
      "inputs": [],
      "name": "owner",
      "outputs": [
        {
          "internalType": "address",
          "name": "",
          "type": "address"
        }
      ],
      "stateMutability": "view",
      "type": "function"
    },
    {
      "inputs": [
        {
          "internalType": "uint256",
          "name": "id",
          "type": "uint256"
        }
      ],
      "name": "payOutProject",
      "outputs": [
        {
          "internalType": "bool",
          "name": "",
          "type": "bool"
        }
      ],
      "stateMutability": "nonpayable",
      "type": "function"
    },
    {
      "inputs": [],
      "name": "projectCount",
      "outputs": [
        {
          "internalType": "uint256",
          "name": "",
          "type": "uint256"
        }
      ],
      "stateMutability": "view",
      "type": "function"
    },
    {
      "inputs": [
        {
          "internalType": "uint256",
          "name": "",
          "type": "uint256"
        }
      ],
      "name": "projectExist",
      "outputs": [
        {
          "internalType": "bool",
          "name": "",
          "type": "bool"
        }
      ],
      "stateMutability": "view",
      "type": "function"
    },
    {
      "inputs": [],
      "name": "projectTax",
      "outputs": [
        {
          "internalType": "uint256",
          "name": "",
          "type": "uint256"
        }
      ],
      "stateMutability": "view",
      "type": "function"
    },
    {
      "inputs": [
        {
          "internalType": "uint256",
          "name": "id",
          "type": "uint256"
        }
      ],
      "name": "requestRefund",
      "outputs": [
        {
          "internalType": "bool",
          "name": "",
          "type": "bool"
        }
      ],
      "stateMutability": "nonpayable",
      "type": "function"
    },
    {
      "inputs": [],
      "name": "stats",
      "outputs": [
        {
          "internalType": "uint256",
          "name": "totalProjects",
          "type": "uint256"
        },
        {
          "internalType": "uint256",
          "name": "totalBackings",
          "type": "uint256"
        },
        {
          "internalType": "uint256",
          "name": "totalDonations",
          "type": "uint256"
        }
      ],
      "stateMutability": "view",
      "type": "function"
    }
  ],
  "bytecode": "0x608060405234801561001057600080fd5b506040516123ee3803806123ee83398101604081905261002f91610049565b600080546001600160a01b03191633179055600155610062565b60006020828403121561005b57600080fd5b5051919050565b61237d806100716000396000f3fe6080604052600436106100f35760003560e01c8063a4b2409e1161008a578063d24cd3ec11610059578063d24cd3ec146102b1578063d80528ae146102c7578063dcc6012814610301578063f0f3f2c81461032357600080fd5b8063a4b2409e1461022e578063b531dcba1461024e578063b69ef8a81461026e578063c9168b721461028457600080fd5b80634cd0cb28116100c65780634cd0cb28146101935780638593054b146101b35780638da5cb5b146101e35780639f39a1941461021b57600080fd5b8063056c29ee146100f85780630c72dded1461012d57806336fbad261461014d5780633e45c8af14610171575b600080fd5b34801561010457600080fd5b50610118610113366004611e5b565b610350565b60405190151581526020015b60405180910390f35b34801561013957600080fd5b50610118610148366004611ef5565b6107d0565b34801561015957600080fd5b5061016360025481565b604051908152602001610124565b34801561017d57600080fd5b5061019161018c366004611f8f565b610a75565b005b34801561019f57600080fd5b506101186101ae366004611f8f565b610aca565b3480156101bf57600080fd5b506101186101ce366004611f8f565b600a6020526000908152604090205460ff1681565b3480156101ef57600080fd5b50600054610203906001600160a01b031681565b6040516001600160a01b039091168152602001610124565b610118610229366004611f8f565b610c74565b34801561023a57600080fd5b50610118610249366004611f8f565b61105c565b34801561025a57600080fd5b50610118610269366004611f8f565b611241565b34801561027a57600080fd5b5061016360035481565b34801561029057600080fd5b506102a461029f366004611f8f565b611368565b6040516101249190611fa8565b3480156102bd57600080fd5b5061016360015481565b3480156102d357600080fd5b506004546005546006546102e692919083565b60408051938452602084019290925290820152606001610124565b34801561030d57600080fd5b5061031661140a565b6040516101249190612161565b34801561032f57600080fd5b5061034361033e366004611f8f565b6116a5565b60405161012491906121c3565b60008086511161039f5760405162461bcd60e51b81526020600482015260156024820152745469746c652063616e6e6f7420626520656d70747960581b60448201526064015b60405180910390fd5b60008551116103f05760405162461bcd60e51b815260206004820152601b60248201527f4465736372697074696f6e2063616e6e6f7420626520656d70747900000000006044820152606401610396565b600084511161043c5760405162461bcd60e51b8152602060048201526018602482015277496d61676555524c2063616e6e6f7420626520656d70747960401b6044820152606401610396565b600083116104835760405162461bcd60e51b8152602060048201526014602482015273436f73742063616e6e6f7420626520656d70747960601b6044820152606401610396565b61048b611cac565b600254815233602080830191825260408301898152606084018990526080840188905260a084018790524260e08501526101008401869052600060c085018190526101208501819052610140850181905260078054600181018255915284517fa66cc928b5edb82af9bd49922954155ab7b0942694bea4ce44661d9a8736c688600b90920291820190815593517fa66cc928b5edb82af9bd49922954155ab7b0942694bea4ce44661d9a8736c689820180546001600160a01b0319166001600160a01b039092169190911790559051805185949361058d937fa66cc928b5edb82af9bd49922954155ab7b0942694bea4ce44661d9a8736c68a01920190611d1f565b50606082015180516105a9916003840191602090910190611d1f565b50608082015180516105c5916004840191602090910190611d1f565b5060a0820151600582015560c0820151600682015560e0820151600782015561010082015160088201556101208201516009820155610140820151600a8201805460ff1916600183600481111561061e5761061e612064565b021790555050600280546000908152600a602090815260408083208054600160ff1990911681179091553384526008835281842080548083018255908552938390208751600b909502019384558683015190840180546001600160a01b0319166001600160a01b03909216919091179055850151805186955092936106ab93908501929190910190611d1f565b50606082015180516106c7916003840191602090910190611d1f565b50608082015180516106e3916004840191602090910190611d1f565b5060a0820151600582015560c0820151600682015560e0820151600782015561010082015160088201556101208201516009820155610140820151600a8201805460ff1916600183600481111561073c5761073c612064565b0217905550505060016004600001600082825461075991906121f3565b9091555050600280543391600080516020612328833981519152919060006107808361220b565b90915550604080519182526060602083018190526010908301526f10d05354105251d38810d4915055115160821b6080830152429082015260a00160405180910390a25060019695505050505050565b6000600786815481106107e5576107e5612226565b60009182526020909120600b90910201600101546001600160a01b031633146108205760405162461bcd60e51b81526004016103969061223c565b6000868152600a602052604090205460ff1661084e5760405162461bcd60e51b815260040161039690612269565b60008551116108975760405162461bcd60e51b81526020600482015260156024820152745469746c652063616e6e6f7420626520656d70747960581b6044820152606401610396565b60008451116108e85760405162461bcd60e51b815260206004820152601b60248201527f4465736372697074696f6e2063616e6e6f7420626520656d70747900000000006044820152606401610396565b60008351116109345760405162461bcd60e51b8152602060048201526018602482015277496d61676555524c2063616e6e6f7420626520656d70747960401b6044820152606401610396565b846007878154811061094857610948612226565b90600052602060002090600b0201600201908051906020019061096c929190611d1f565b50836007878154811061098157610981612226565b90600052602060002090600b020160030190805190602001906109a5929190611d1f565b5082600787815481106109ba576109ba612226565b90600052602060002090600b020160040190805190602001906109de929190611d1f565b5081600787815481106109f3576109f3612226565b90600052602060002090600b020160080181905550336001600160a01b03166000805160206123288339815191528742604051610a61929190918252606060208301819052600f908301526e10d05354105251d388115112551151608a1b6080830152604082015260a00190565b60405180910390a250600195945050505050565b6000546001600160a01b03163314610ac55760405162461bcd60e51b81526020600482015260136024820152724f776e6572207265736572766564206f6e6c7960681b6044820152606401610396565b600155565b6000818152600a602052604081205460ff16610af85760405162461bcd60e51b815260040161039690612269565b600060078381548110610b0d57610b0d612226565b60009182526020909120600a600b90920201015460ff166004811115610b3557610b35612064565b14610b7d5760405162461bcd60e51b8152602060048201526018602482015277141c9bda9958dd081b9bc81b1bdb99d95c881bdc195b995960421b6044820152606401610396565b60078281548110610b9057610b90612226565b60009182526020909120600b90910201600101546001600160a01b03163314610bcb5760405162461bcd60e51b81526004016103969061223c565b600360078381548110610be057610be0612226565b60009182526020909120600a600b9092020101805460ff19166001836004811115610c0d57610c0d612064565b0217905550610c1b82611961565b604080518381526060602082018190526010908201526f10d05354105251d3881111531155115160821b6080820152428183015290513391600080516020612328833981519152919081900360a00190a2506001919050565b6000803411610cc55760405162461bcd60e51b815260206004820152601b60248201527f416d6f756e74206d7573742062652076616c6964206e756d62657200000000006044820152606401610396565b6000828152600a602052604090205460ff16610cf35760405162461bcd60e51b815260040161039690612269565b600060078381548110610d0857610d08612226565b60009182526020909120600a600b90920201015460ff166004811115610d3057610d30612064565b14610d785760405162461bcd60e51b8152602060048201526018602482015277141c9bda9958dd081b9bc81b1bdb99d95c881bdc195b995960421b6044820152606401610396565b600160046001016000828254610d8e91906121f3565b909155505060068054349190600090610da89084906121f3565b925050819055503460078381548110610dc357610dc3612226565b90600052602060002090600b02016006016000828254610de391906121f3565b92505081905550600160078381548110610dff57610dff612226565b90600052602060002090600b02016009016000828254610e1f91906121f3565b9091555050600082815260096020908152604080832081516080808201845233808352348387019081524284870181815260608087018b8152885460018082018b55998d529b8b902097516004909c0290970180546001600160a01b0319166001600160a01b03909c169b909b178b559251968a01969096559451600289015592516003909701805460ff1916971515979097179096558351888152948501829052600f918501919091526e10d05354105251d388109050d2d151608a1b90840152908201526000805160206123288339815191529060a00160405180910390a260078281548110610f1357610f13612226565b90600052602060002090600b02016005015460078381548110610f3857610f38612226565b90600052602060002090600b02016006015410610fd957600160078381548110610f6457610f64612226565b60009182526020909120600a600b9092020101805460ff19166001836004811115610f9157610f91612064565b021790555060078281548110610fa957610fa9612226565b90600052602060002090600b02016006015460036000828254610fcc91906121f3565b9091555060019392505050565b60078281548110610fec57610fec612226565b90600052602060002090600b02016008015442106110545760026007838154811061101957611019612226565b60009182526020909120600a600b9092020101805460ff1916600183600481111561104657611046612064565b021790555061105482611961565b506001919050565b600060026007838154811061107357611073612226565b60009182526020909120600a600b90920201015460ff16600481111561109b5761109b612064565b1415806110e357506003600783815481106110b8576110b8612226565b60009182526020909120600a600b90920201015460ff1660048111156110e0576110e0612064565b14155b61113f5760405162461bcd60e51b815260206004820152602760248201527f50726f6a656374206e6f74206d61726b656420617320726576657274206f722060448201526619195b195d195960ca1b6064820152608401610396565b60006007838154811061115457611154612226565b60009182526020909120600a600b90920201015460ff16600481111561117c5761117c612064565b146111c25760405162461bcd60e51b8152602060048201526016602482015275141c9bda9958dd08185b1c9958591e4818db1bdcd95960521b6044820152606401610396565b600782815481106111d5576111d5612226565b90600052602060002090600b02016008015442101561122c5760405162461bcd60e51b8152602060048201526013602482015272111958591b1a5b99481b9bdd081c185cdcd959606a1b6044820152606401610396565b60026007838154811061101957611019612226565b600060016007838154811061125857611258612226565b60009182526020909120600a600b90920201015460ff16600481111561128057611280612064565b146112cd5760405162461bcd60e51b815260206004820152601a60248201527f50726f6a656374206e6f206c6f6e67657220417070726f7665640000000000006044820152606401610396565b600782815481106112e0576112e0612226565b90600052602060002090600b0201600601544710156113355760405162461bcd60e51b8152602060048201526011602482015270125b9cdd59999a58da595b9d08119d5b99607a1b6044820152606401610396565b6000546001600160a01b0316331461135f5760405162461bcd60e51b81526004016103969061223c565b61105482611acf565b606060096000838152602001908152602001600020805480602002602001604051908101604052809291908181526020016000905b828210156113ff576000848152602090819020604080516080810182526004860290920180546001600160a01b03168352600180820154848601526002820154928401929092526003015460ff1615156060830152908352909201910161139d565b505050509050919050565b60606007805480602002602001604051908101604052809291908181526020016000905b8282101561169c5760008481526020908190206040805161016081018252600b86029092018054835260018101546001600160a01b0316938301939093526002830180549293929184019161148290612294565b80601f01602080910402602001604051908101604052809291908181526020018280546114ae90612294565b80156114fb5780601f106114d0576101008083540402835291602001916114fb565b820191906000526020600020905b8154815290600101906020018083116114de57829003601f168201915b5050505050815260200160038201805461151490612294565b80601f016020809104026020016040519081016040528092919081815260200182805461154090612294565b801561158d5780601f106115625761010080835404028352916020019161158d565b820191906000526020600020905b81548152906001019060200180831161157057829003601f168201915b505050505081526020016004820180546115a690612294565b80601f01602080910402602001604051908101604052809291908181526020018280546115d290612294565b801561161f5780601f106115f45761010080835404028352916020019161161f565b820191906000526020600020905b81548152906001019060200180831161160257829003601f168201915b505050918352505060058201546020820152600682015460408201526007820154606082015260088201546080820152600982015460a0820152600a82015460c09091019060ff16600481111561167857611678612064565b600481111561168957611689612064565b815250508152602001906001019061142e565b50505050905090565b6116ad611cac565b6000828152600a602052604090205460ff166116db5760405162461bcd60e51b815260040161039690612269565b600782815481106116ee576116ee612226565b90600052602060002090600b020160405180610160016040529081600082015481526020016001820160009054906101000a90046001600160a01b03166001600160a01b03166001600160a01b0316815260200160028201805461175190612294565b80601f016020809104026020016040519081016040528092919081815260200182805461177d90612294565b80156117ca5780601f1061179f576101008083540402835291602001916117ca565b820191906000526020600020905b8154815290600101906020018083116117ad57829003601f168201915b505050505081526020016003820180546117e390612294565b80601f016020809104026020016040519081016040528092919081815260200182805461180f90612294565b801561185c5780601f106118315761010080835404028352916020019161185c565b820191906000526020600020905b81548152906001019060200180831161183f57829003601f168201915b5050505050815260200160048201805461187590612294565b80601f01602080910402602001604051908101604052809291908181526020018280546118a190612294565b80156118ee5780601f106118c3576101008083540402835291602001916118ee565b820191906000526020600020905b8154815290600101906020018083116118d157829003601f168201915b505050918352505060058201546020820152600682015460408201526007820154606082015260088201546080820152600982015460a0820152600a82015460c09091019060ff16600481111561194757611947612064565b600481111561195857611958612064565b90525092915050565b60005b600082815260096020526040902054811015611acb57600082815260096020526040812080548390811061199a5761199a612226565b6000918252602080832060049092029091015485835260099091526040822080546001600160a01b03909216935090849081106119d9576119d9612226565b90600052602060002090600402016001015490506001600960008681526020019081526020016000208481548110611a1357611a13612226565b906000526020600020906004020160030160006101000a81548160ff02191690831515021790555042600960008681526020019081526020016000208481548110611a6057611a60612226565b906000526020600020906004020160020181905550611a7f8282611c47565b600160046001016000828254611a9591906122cf565b909155505060068054829190600090611aaf9084906122cf565b9250508190555050508080611ac39061220b565b915050611964565b5050565b600060078281548110611ae457611ae4612226565b90600052602060002090600b02016006015490506000606460015483611b0a91906122e6565b611b149190612305565b9050600460078481548110611b2b57611b2b612226565b60009182526020909120600a600b9092020101805460ff19166001836004811115611b5857611b58612064565b0217905550611b9f60078481548110611b7357611b73612226565b600091825260209091206001600b9092020101546001600160a01b0316611b9a83856122cf565b611c47565b600054611bb5906001600160a01b031682611c47565b60078381548110611bc857611bc8612226565b90600052602060002090600b02016006015460036000828254611beb91906122cf565b9091555050604080518481526060602082018190526011908201527010d05354105251d388141052510813d555607a1b6080820152428183015290513391600080516020612328833981519152919081900360a00190a2505050565b6000826001600160a01b03168260405160006040518083038185875af1925050503d8060008114611c94576040519150601f19603f3d011682016040523d82523d6000602084013e611c99565b606091505b5050905080611ca757600080fd5b505050565b6040518061016001604052806000815260200160006001600160a01b03168152602001606081526020016060815260200160608152602001600081526020016000815260200160008152602001600081526020016000815260200160006004811115611d1a57611d1a612064565b905290565b828054611d2b90612294565b90600052602060002090601f016020900481019282611d4d5760008555611d93565b82601f10611d6657805160ff1916838001178555611d93565b82800160010185558215611d93579182015b82811115611d93578251825591602001919060010190611d78565b50611d9f929150611da3565b5090565b5b80821115611d9f5760008155600101611da4565b634e487b7160e01b600052604160045260246000fd5b600082601f830112611ddf57600080fd5b813567ffffffffffffffff80821115611dfa57611dfa611db8565b604051601f8301601f19908116603f01168101908282118183101715611e2257611e22611db8565b81604052838152866020858801011115611e3b57600080fd5b836020870160208301376000602085830101528094505050505092915050565b600080600080600060a08688031215611e7357600080fd5b853567ffffffffffffffff80821115611e8b57600080fd5b611e9789838a01611dce565b96506020880135915080821115611ead57600080fd5b611eb989838a01611dce565b95506040880135915080821115611ecf57600080fd5b50611edc88828901611dce565b9598949750949560608101359550608001359392505050565b600080600080600060a08688031215611f0d57600080fd5b85359450602086013567ffffffffffffffff80821115611f2c57600080fd5b611f3889838a01611dce565b95506040880135915080821115611f4e57600080fd5b611f5a89838a01611dce565b94506060880135915080821115611f7057600080fd5b50611f7d88828901611dce565b95989497509295608001359392505050565b600060208284031215611fa157600080fd5b5035919050565b602080825282518282018190526000919060409081850190868401855b8281101561200a57815180516001600160a01b031685528681015187860152858101518686015260609081015115159085015260809093019290850190600101611fc5565b5091979650505050505050565b6000815180845260005b8181101561203d57602081850181015186830182015201612021565b8181111561204f576000602083870101525b50601f01601f19169290920160200192915050565b634e487b7160e01b600052602160045260246000fd5b6005811061209857634e487b7160e01b600052602160045260246000fd5b9052565b60006101608251845260208301516120bf60208601826001600160a01b03169052565b5060408301518160408601526120d782860182612017565b915050606083015184820360608601526120f18282612017565b9150506080830151848203608086015261210b8282612017565b91505060a083015160a085015260c083015160c085015260e083015160e0850152610100808401518186015250610120808401518186015250610140808401516121578287018261207a565b5090949350505050565b6000602080830181845280855180835260408601915060408160051b870101925083870160005b828110156121b657603f198886030184526121a485835161209c565b94509285019290850190600101612188565b5092979650505050505050565b6020815260006121d6602083018461209c565b9392505050565b634e487b7160e01b600052601160045260246000fd5b60008219821115612206576122066121dd565b500190565b600060001982141561221f5761221f6121dd565b5060010190565b634e487b7160e01b600052603260045260246000fd5b602080825260139082015272556e617574686f72697a656420456e7469747960681b604082015260600190565b602080825260119082015270141c9bda9958dd081b9bdd08199bdd5b99607a1b604082015260600190565b600181811c908216806122a857607f821691505b602082108114156122c957634e487b7160e01b600052602260045260246000fd5b50919050565b6000828210156122e1576122e16121dd565b500390565b6000816000190483118215151615612300576123006121dd565b500290565b60008261232257634e487b7160e01b600052601260045260246000fd5b50049056feaee8e5d3bbb2f71a951b5632cee20f7ac487b9f8ab4f66a236f7694b13af7c6aa2646970667358221220cfce78842474e46e04dd70ea3636b0fed5a3436b22724010c1280fa35285ac5e64736f6c634300080b0033",
  "linkReferences": {},
  "deployedLinkReferences": {}
}